:100000000C94E7030C9410040C9410040C9410044A
:100010000C9410040C9410040C94CC170C94100441
:100020000C9410040C9410040C9410040C94B81646
:100030000C9410040C9410040C9410040C941004F0
:100040000C9410040C9410040C94D7170C94F9170A
:100050000C9410040C9410040C9410040C941004D0
:100060000C9410040C941004040000040404040410
:100070000000040004040404040404000400020357
:100080000400040400040404000400000400040448
:100090000404000404000404010704000402000036
:1000A00000000000000600020200002300260029D4
:1000B000002C0078DA6D56DB6E1B3710FD157601CB
:1000C000A34DA008D24A766C017EB0253515E28B8F
:1000D00062D90DD0A220E85D6A45646F21B9529CB7
:1000E000C0FFDE33E4DEE2582F5A9233C3E1CC99ED
:1000F00033F323106519CC828FA92A4BA98341F0D1
:1001000058A934E67BA98D2A7283A3248A66EC8FD2
:100110000FF3F91B369E0EC3E1883DAABCB22A3507
:10012000B47DF3C02EEBE51B160EA793E1D968183A
:100130008EC2E3D1380C612E2AB24CE4310CFD089A
:10014000449A1691B092172A362C2AAADC9E1F4593
:10015000C1EC1462A9149A9B5D65E3E29007B39029
:1001600034F3AD4A78AC126545CA8BCA32E8418196
:10017000952A3F3FAAD85EA495A4752CB7A24A2D14
:100180006F3732F18DC79516164F8064301BBF6FE5
:10019000ED4938638BF2275BF8ABD29457A57327F0
:1001A0003C69858D951496469896BCD688956E3E8A
:1001B000558E705927DC4955A991DCAAE88B711E30
:1001C0008493D6A8D5E6298F6A9BC16C321A04B1F4
:1001D0007CAC129E1748C559B382F184C5C28AF31C
:1001E000A3B708DFB815D352C4ACD0B1D4749B8880
:1001F00063EDDF18360207ADACFC4582E2E505C7CA
:100200008340665227328F9E3805034E60CB0786A7
:10021000EF8A4C360F8E90B02FA46B4456A6DD7B30
:100220009A759343A6A5B1DD295CEF92E19FCB6B54
:100230008B56AB24919A1E61283914EFE3EEF2AF8E
:1002400095D4E493B0B20D50381D045B958B547D6A
:10025000A71B29862CD2917B0B529548CB9D9FC121
:10026000ECB85E399960F6DE2FABD2AA4C06339813
:1002700051B1CCADDA3EB162BB35D292AF1D0C119B
:10028000165C5FC9D720D706A2C87B491D1F372A35
:1002900094F34656E5566A1FECC6FAAEA22CE05F10
:1002A000E139C813C2252DA23EAE3F9DBE7FC5CB0E
:1002B0001BA180CC934CDFAD1725005726BF08F15A
:1002C000F290F1E809A5D5DAA445DFFF13AF94CB8E
:1002D0006FB50B4075238C4F1F7E3859D701A7701F
:1002E00096855154586D7EC6679D804B22C5C8A720
:1002F00099B559EF61001AA8F87A8BAEA7F4BC1231
:100300006B5CDD93B342B7125A9685AEB34E61A8CB
:10031000D72DFEE4B75269F913C6CE5A4B2F5CEBCA
:100320000B013055191343BD02815EACA7CF4D318F
:1003300013ADCDAF6EE71FF99F77CB4F14D191FB73
:100340000D82EBF903C853D84C2662129E96E0C288
:10035000BBE57CB9FA7BC93FAF6E16B79F29702108
:100360006D6E9677D85CAF6E368886562285DE7ABB
:10037000311AAC176328E1747571C52F2F1E1654FE
:100380002ADEF8E6FEE27EC3370FD79B4F38D92C22
:10039000E9E484B697EBF5F28EDFAEEF57D7AB7F8B
:1003A000960BFE70437BC0FEA83BA57F7E797BFF4A
:1003B000175F2E3E4075FC4CF55781111C613AAA1F
:1003C00006BEE86F7D390A66FF9E0E4EFF1B04EBEA
:1003D000397D03326EB1A0052AD32D96B498845886
:1003E0003C1314608612A641605CC564E72225D2E6
:1003F0007A624D19C71EB07391B3BCB00C2060A6D1
:10040000D802D687CC8394B95CB2C34EE1DBE7C493
:10041000B0122C019BBE22A0FBBBA5AA624625B050
:10042000CAEC4E58A60C13F55D22B26A2F3DBDD41E
:10043000C28644299F9E04FDAE2B404618C47532E7
:10044000670DE7B7FA48D2DC7731560A8D1431A927
:1004500075A11DBF34075A82078C75BD6C95032AA0
:100460002A6675EB73B4D4ED810FC88CC82458C2CA
:10047000F785E6302BF6B2B184577D9704B5EE18B8
:100480007E33FB544A4FF5D7D218914806122F629B
:10049000D9B804105C2B6324A212ED645CA5D4448B
:1004A0008A2DA30A6735A819815AEEC184BEB8AF58
:1004B000E95A47630C5F7A9B16074F6D37488D608A
:1004C000FE7295979E767C99B8A39C2C75DB78FA82
:1004D0009DACAF850314510D3D2446E2C5141CEAC2
:1004E000AC9B56E01777D841A5298A379238EDF7AB
:1004F00070CF319B7A3A606E5880884B97C34F7F9C
:100500006ED8D4F9B345C1B6C27950DF8E58DE3B00
:10051000A7E808E461A46B7C9F858D767191788F44
:100520007FF364E166151EEDAAFC0BAC0085B19F5C
:10053000227AFBA63BE826068FA6224F01C03D8EFD
:10054000C563DAE0AA7512E6DD04D422B59E8B629B
:10055000DFE50DF5A85CA67504231CD3D1F4557214
:10056000A2E7FB0C1D94DDD5A0F5D9249E7D464164
:10057000A62A9239BD35A069EDC3FA6A3F095CDF4E
:100580002951ECD295BBEF3C1DF14EDA7909155596
:10059000F75347CDAEEDD25EF31A376E0136BCEDA0
:1005A00074D03EED461583C1AC9D3C88859A4EDFE4
:1005B000EFF10C3307804A5FAE15B5C4DE1F24A0EF
:1005C0001E761D9C37FEF75AB91F9686342DE1A280
:1005D0009E93EC2527D57E22F9B0D19FB226D4CBAD
:1005E0003A9C35D3CFEBEA534776DA3A4E02FD39DF
:1005F000EA6B075BA85559FD67BEFAB01E779DF2FE
:10060000451B65589F1F613C988EFB3DAF0B5124E5
:10061000DAAEFAEA1CD5CBDE744250718CB653C9FF
:10062000CECD215D6A4F00897ABC0724F6A3E1781C
:10063000321CBD3B393D7B9784DBC7497C3C95C16F
:10064000F3FF38830E8E93050000000000000000C9
:1006500000000001000201028D008B0F020000016A
:10066000000000BF0803000001000000BC080400F7
:100670000001000000490F05000001000000360FD6
:1006800006000100019E0054160700000100000052
:10069000070F08000100018C003A16090000010054
:1006A00000000F050A00020101990003100B00036E
:1006B00001038900E5040C000201028700D20F0D3E
:1006C000000200028D00680D0E0002000285004548
:1006D0000A0F000300038900C90910000200028705
:1006E00000A509110005000580009E1512000200FA
:1006F000028500F60C13000100018C001810140094
:100700000200028700BF0C15000200028500E0070E
:1007100016000400047C002A0C1700050005770071
:10072000461518000100018C006610190008000829
:100730006F0038081A000300036C00EA151B000262
:1007400000028500BB141C0002000287008E081DF9
:1007500000040004680004081E000100018C00343D
:10076000151F000001000000F90620000000050030
:100770000000002B00110A048F002A00110A0493C4
:100780000029000D0802970028000B07019E002792
:100790000040070199002600120A049A0025000B68
:1007A00007019E0024001008029F00230015090382
:1007B000A1000000400802A40022000E0802A600CA
:1007C0002100090701A800200006060000001124EE
:1007D0001FBECFEFD8E0DEBFCDBF14BE0FB6F8947A
:1007E000A8958091600088618093600010926000FD
:1007F0000FBE11E0A0E0B1E0EEE7F1E302C005902A
:100800000D92AA32B107D9F722E0AAE2B1E001C005
:100810001D92AE38B207E1F70E94B4160C94BD18D1
:100820000C940000F894089578940895109225018E
:10083000E9E1F1E084819581A681B781AC01BD0138
:100840005659674E7F4F4483558366837783965905
:10085000A74EBF478093150190931601A0931701EF
:10086000B093180181E0089580E008951F93CF931D
:10087000DF93EC011FB70E941204E0912101F09177
:100880002201EC17FD0751F58C819D81AE81BF815E
:1008900080930D0190930E01A0930F01B09310016E
:1008A0008881998190930A018093090189E091E000
:1008B0009093220180932101809123019091240142
:1008C0008C179D0731F489E191E090932401809386
:1008D00023011FBFDF91CF911F910895DF01019088
:1008E000F081E02D309741F3EC17FD07B9F78881CF
:1008F00099818D939C93E0CFCF92DF92EF92FF92FC
:100900000F931F93CF93DF9380913601909137011E
:10091000009711F1A0913301B0913401209135017C
:10092000022F10E0FD0140E050E0BA0101976C0198
:10093000E12CF12C4C155D056E057F05B0F0289F6C
:10094000F001299FF00D1124EA0FFB1F1182108284
:10095000B0933901A0933801DF91CF911F910F918E
:10096000FF90EF90DF90CF9008954F5F5F4F6F4FF4
:100970007F4FE801CE0FDF1FD183C083FE01DACFA6
:10098000DC019B018C919091320141E0480F64E0C1
:10099000469FA0011124E0913001F0913101E40F54
:1009A000F51F8F5F891770F4BF016C5F7F4F408127
:1009B00051814217530721F48C93828193810895CA
:1009C000FB01EFCF80E090E00895CF92DF92EF92AD
:1009D000FF920F931F93CF93DF93FC011081C4818B
:1009E000D581C084D184E284F3840FB70E941204BD
:1009F000113069F0123071F0C8820FBFDF91CF91D2
:100A00001F910F91FF90EF90DF90CF900895D982C2
:100A1000C882F3CFC882D982EA82FB82EECF0895E2
:100A2000FC01A489B58986898C9323A181E02827BC
:100A300023A384819581A681B78120FF21C04085B1
:100A4000518562857385840F951FA61FB71F22FFEE
:100A500011C040895189628973892B2F84179507AA
:100A6000A607270B27FD06C08BEC98E093838283B3
:100A7000DB01CA0184839583A683B78381E008954F
:100A80004485558566857785DECF0F931F93CF9379
:100A9000DF93EC01162F0FB70E9412048E8980FF9E
:100AA0000DC01F8B8A7F84608E8BAC89BD891097A7
:100AB00059F41092250181E080939F010FBFDF91CF
:100AC000CF911F910F9108951296ED91FC9113977C
:100AD0008D919C9111979D8B8C8B11961C921E92DF
:100AE00013961C921E921297612FCD010995DDCFAE
:100AF000CF93FC01A085B1859C91818D22859223A5
:100B0000911511F08095817080FF10C083EB95E006
:100B10009383828383899489A589B6898483958305
:100B2000A683B783828D838FC1E008C0C38DCA9529
:100B300041F4648D8789908D0E9445058C2FCF915B
:100B40000895C38F84819581A681B7814785508997
:100B500061897289840F951FA61FB71F84839583AF
:100B6000A683B783E1CF0F931F93FC01A085B185C6
:100B70009C91448155816681778103851485258503
:100B80003685400F511F621F731F818D228592236E
:100B9000911511F08095817080FD0DC0438B548BB1
:100BA000658B768B88E795E093838283CF011F91D5
:100BB0000F910C947805448355836683778381E095
:100BC0001F910F9108950897FC01608D0E944505C3
:100BD00080E00895FC0186898460868B109225014F
:100BE00081E080939F0184819581A681B7814089AE
:100BF000518962897389840F951FA61FB71F84834B
:100C00009583A683B78381E00895CF93DF93EC01AA
:100C10000E943604CE0108960E943604EC89FD89B4
:100C2000309741F41D8A1C8A188E1F8A1E8ADF9114
:100C3000CF91089590818181138212821182108256
:100C4000E92FF82FEDCF9C018FEF9FEF620F62131A
:100C500001C00895F90121918227082E8295807F95
:100C60008025092E982F82958F70082686959827C3
:100C70008927880F880F880F80259F01E8CF8091F2
:100C8000840090918500C29690938900809388009B
:100C900082E086BB0895B09B17C081E086BB80913F
:100CA0002A0190912B01019690932B0180932A01A8
:100CB00020E030E830930501209304019093070170
:100CC0008093060181E0089580912A0190912B0183
:100CD000019620E030E0EECFFF920F931F93CF9369
:100CE000DF93C82FD42F8B01FFB60E941204F801A6
:100CF0008281D11551F0C82BF801C283FFBEDF916C
:100D0000CF911F910F91FF900895C095C823F4CF04
:100D10000F931F93CF93DF938C01EC01A897CE0123
:100D20000E9436041C821D821E821F821A8A1B8A20
:100D30001C8A1D8A88A199A1AAA1BBA12CA54E85B8
:100D40005F856889798924FF43C0841B950BA60BB6
:100D5000B70BB7FF07C0B095A095909581959F4FB1
:100D6000AF4FBF4FB095A095909581959F4FAF4FD6
:100D7000BF4F88A399A3AAA3BBA31E861F86188A68
:100D8000198A247328602CA76D8D7E8D8F8D40E08D
:100D90000E946C064CA544FF02C045FF06C044708B
:100DA0006A8D7B8D8C8D0E946C06909138018091AC
:100DB0003901F8013497A081B181109771F49093B3
:100DC000380180933901DF91CF911F910F910895E0
:100DD0007695679557954795B8CF2D913C9111978A
:100DE000318320839C9311968C9311979A2F8B2F8C
:100DF000E2CF0E94120488E198E00FB6F894A8951B
:100E0000809360000FBE90936000FFCFCF93CFB769
:100E10000E941204609184007091850080912A01E3
:100E200090912B01B09B06C0CFBF7F3F09F0019688
:100E3000CF910895CFBFFCCFC82F0E9412046C2F12
:100E400070E087E792E00E94641884E00E941C072B
:100E5000BF92CF92DF92EF92FF920F931F93CF93A7
:100E6000DF938C01DC011496CD90DD90ED90FC9029
:100E70001797BFB60E941204C0912101D0912201A0
:100E80009F2D4C815D816E817F818F2DC416D5068B
:100E9000E606870B87FF39C00E9406072F2DC6166E
:100EA000D706E806290B27FF07C08091270181118B
:100EB00003C083E00E941C07B1E0C930DB0719F4CE
:100EC0000990D881C02DF801D183C083C0920D0153
:100ED000D0920E01E0920F01F092100110930A01DE
:100EE0000093090189E091E0909322018093210110
:100EF0000E943F06BFBEDF91CF911F910F91FF90DF
:100F0000EF90DF90CF90BF900895FE010990D881B7
:100F1000C02D4C815D816E817F81892FC416D506DD
:100F2000E606870B87FFF1CFD801CD93DC931183C1
:100F30000083E0CFCF93CFB70E9412048091380195
:100F400090913901009719F48FE00E941C07FC0171
:100F5000208131813093390120933801CFBFCF9167
:100F60000895FC01138212821182108220913601B1
:100F700030913701232B19F08EE00E941C0720913D
:100F800035012617170614F46093350108959091E2
:100F90003201891778F444E0849FC0011124E09164
:100FA0003001F0913101E80FF91F8081918186179E
:100FB000970719F08CE00E941C07828193810895A5
:100FC0000F931F93CF93DF93EC0166E475E1888163
:100FD0000E94C7078C0181E04C815D816E817F8119
:100FE000452B462B472B09F480E0C82FCC0F0E94DD
:100FF0001204F80184A58D7F8C2B84A7DF91CF91FB
:101000001F910F910C9414040F931F93CF93DF93B0
:101010008C0164E375E1FC0180810E94C707EC014B
:101020000E941204CE010E94050681E08E8BF80119
:1010300084819581A681B7818C839D83AE83BF8394
:1010400080859185A285B385888B998BAA8BBB8B74
:10105000892B8A2B8B2B19F0CE010E942807F801CF
:101060008485888FDF91CF911F910F910C94140488
:101070000F931F93CF93DF938C016AEE75E1FC0110
:1010800080810E94C707EC010E943604F801848128
:101090009581A681B7818C839D83AE83BF83808534
:1010A0009185A285B3858F87988BA98BBA8B848510
:1010B0008A8F811108C0188E1F8A198EDF91CF91F7
:1010C0001F910F91089540895189628973894B87D7
:1010D0005C876D877E8723EB35E03B832A838B8F8C
:1010E00084899589A689B789892B8A2B8B2BA1F0B6
:1010F00083E0898F64E375E1F801808D0E94C70762
:10110000988F8F8BF801848D8C8FCE01DF91CF91DA
:101110001F910F910C94280782E0EBCFEF92FF9282
:101120000F931F93CF93DF938C0164E375E1FC0170
:1011300080810E94C707EC010E9412048E8980FF03
:1011400013C07E01F8E0EF0EF11CC7010E943604C7
:10115000F80184819581A681B7818C879D87AE87B0
:10116000BF87C7010E942807DF91CF911F910F9180
:10117000FF90EF900C94140488E00E941C0780916B
:101180002701811103C082E00E941C07823011F008
:101190001092270108958F929F92AF92BF92CF92A3
:1011A000DF92EF92FF920F931F93CF93DF93EC01A7
:1011B000AF8CB8A085E1A114B10409F463C0F501B6
:1011C0008081918198A38F8FC680D780E084F1843D
:1011D00011E0C114D104E104F10409F410E06C89B8
:1011E0007D898E89412F0E946C06809138019091F3
:1011F0003901F50191838083B0923901A0923801C1
:10120000C114D104E104F10449F08B8D9C8DAD8DA6
:10121000BE8DC816D906EA06FB06B0F191E0C114EE
:10122000D104E104F10409F090E08BA1829583954B
:10123000817040E050E0BA01981791F04F89588DC5
:10124000698D7A8D411551056105710549F08C81D3
:101250009D81AE81BF81480F591F6A1F7B1F14609B
:10126000EF8DF8A1309739F182809380A480B5800A
:1012700012FF1EC0872F481559056A058B0987FF85
:1012800017C083E10E941C074F89588D698D7A8DA4
:1012900013E0411551056105710511F38C819D81A4
:1012A000AE81BF81480F591F6A1F7B1F17E0D8CF3F
:1012B0001460B501A401488B598B6A8B7B8B8BA181
:1012C0008071812B8BA3812F847011FD14C0811537
:1012D00029F04C835D836E837F8381E0DF91CF9122
:1012E0001F910F91FF90EF90DF90CF90BF90AF9044
:1012F0009F908F9008950C811D812E813F810C0D50
:101300001D1D2E1D3F1D811539F0832F0417150754
:101310002607870B87FFDDCF80E195E09B838A83DB
:101320000C831D832E833F83C886D986EA86FB867D
:101330008B8D9C8DAD8DBE8D8C199D09AE09BF091D
:101340008C879D87AE87BF87C8CF0F931F93CF939E
:10135000DF938C016EE975E1FC0180810E94C70773
:10136000EC010E9412048F8D98A1892B19F084E161
:101370000E941C07F80184819581A681B7818B8F1B
:101380009C8FAD8FBE8FDF91CF911F910F910C94E9
:101390001404AF92BF92CF92DF92EF92FF920F931D
:1013A0001F93CF93DF935C016EE975E1FC018081AF
:1013B0000E94C707EC010E949A078C01F501C480C6
:1013C000D580E680F780FC01C282D382E482F58278
:1013D000F50180859185A285B385F8018683978381
:1013E000A087B1870E941204F801118210828F8DAC
:1013F00098A1892B91F0E9A1FAA1118300831AA386
:1014000009A3DF91CF911F910F91FF90EF90DF9093
:10141000CF90BF90AF900C9414041AA309A318A303
:101420000F8F8BA182FF0EC0488959896A897B89F9
:10143000972F4C155D056E059F0997FF03C083E14B
:101440000E941C07C88AD98AEA8AFB8A982F94606E
:101450009BA381FF0BC04C815D816E817F81872FB3
:101460004C155D056E058F0987FDCBCFCE010E941F
:101470003604CC82DD82EE82FF828BEC98E09B8387
:101480008A83CE010E942807BCCFCF92DF92EF92D1
:10149000FF920F931F93CF93DF938C016EE975E159
:1014A000FC0180810E94C707EC010E9436048F8DE9
:1014B00098A1892B19F082E10E941C07F801F480A1
:1014C0001BA101E0F11001C000E06C897D898E89CB
:1014D000402F0E946C06107191E0F11090E014FB17
:1014E000882780F921E08227102B981759F18F89DE
:1014F000988DA98DBA8D892B8A2B8B2B19F10E947F
:101500000607CF88D88CE98CFA8CC60ED71EE81E49
:10151000F91EC88AD98AEA8AFB8ACC82DD82EE82E9
:10152000FF828BEC98E09B838A8314601BA3CE011F
:10153000DF91CF911F910F91FF90EF90DF90CF90AF
:101540000C9428071BA3DF91CF911F910F91FF905F
:10155000EF90DF90CF9008954F925F926F927F92BD
:101560008F929F92AF92BF92CF92DF92EF92FF92B3
:10157000CF93DF93EC01ECA1FDA13097A1F41E867F
:101580001F86188A198A80E0DF91CF91FF90EF9033
:10159000DF90CF90BF90AF909F908F907F906F9093
:1015A0005F904F900895808191819DA38CA382814B
:1015B0009381A481B581608571854681578122859B
:1015C000322F3170E0903801F0903901F182E082E1
:1015D000F0933901E0933801C8A0D9A0EAA0FBA09C
:1015E00020FF08C0F094E094D094C094C11CD11C9A
:1015F000E11CF11C4B01A12CB12CC60ED71EE11C25
:10160000F11CC8A2D9A2EAA2FBA25D874C876A019D
:10161000052E000CEE08FF08C80ED91EEA1EFB1EA0
:10162000C886D986EA86FB862CA5CC80DD80EE8034
:10163000FF8025FF1AC08C0D9D1DAE1DBF1D8C8324
:101640009D83AE83BF838E869F86A88AB98A452BE9
:1016500051F020642CA7311509F461C0ED8DFE8D89
:101660008F8D80835CC02F7BF5CF4E845F8468882C
:1016700079884A895B896C897D89840F951FA61FAB
:10168000B71F8A8B9B8BAC8BBD8B8C839D83AE836A
:10169000BF83422F407124FD04C0880C991CAA1CF2
:1016A000BB1C8E869F86A88AB98A4528462847286B
:1016B00091F22B2F8C159D05AE052F0927FF10C029
:1016C0008C199D09AE09BF098038914CAF4FBF4FAF
:1016D0001CF488E10E941C07CC82DD82EE82FF822E
:1016E0003115E9F041111DC0ED8DFE8D8F8D808388
:1016F0000E940607CE88DF88E88CF98CDC01CB01DC
:101700008C0D9D1DAE1DBF1DCC80DD80EE80FF8049
:101710002F2DC816D906EA062B0B27FD0CC081E039
:1017200033CF0E940607292F6C157D058E052F09E2
:1017300027FDF7CFD9CF8C839D83AE83BF83EFCFB7
:101740008F929F92AF92BF92CF92DF92EF92FF92D1
:101750000F931F93CF93DF93EC01EA8DFB8D8C8D5C
:1017600080830E9406070E891F89288D398DAB0161
:10177000BC01400F511F621F731F8E859F85A88972
:10178000B9896C017D0121E0C21AD108E108F10894
:1017900080FD3EC08CA584FF54C088849984AA84AF
:1017A000BB848A899B89AC89BD89880D991DAA1D36
:1017B000BB1D8A8B9B8BAC8BBD8B0C851D85012E35
:1017C000000C220B330B080D191D2A1D3B1D088729
:1017D00019872A873B872B2F84179507A607270B86
:1017E00027FD2FC0CE86DF86E88AF98A8C839D8309
:1017F000AE83BF8381E0DF91CF911F910F91FF9066
:10180000EF90DF90CF90BF90AF909F908F90089512
:10181000C114D104E104F10409F0BFCF4C835D830E
:101820006E837F83CE01DF91CF911F910F91FF9047
:10183000EF90DF90CF90BF90AF909F908F900C94DF
:10184000AC0ACE86DF86E88AF98A4C835D836E8394
:101850007F83D0CFEF92FF920F931F93CF93DF93AD
:101860007C0166E475E1DC018C910E94C7078C0164
:101870000E949A07EC01F70184819581A681B781C6
:101880008A839B83AC83BD83808591859987888774
:10189000892B19F487E10E941C07848595859F8315
:1018A0008E831A860E941204F80184A5282F2170C5
:1018B00081FB992790F9291729F091E089279A85CA
:1018C00091609A87D8011E964D915D916D917C91A2
:1018D0005197452B462B472B19F19C968C939C973F
:1018E0001982188294968D919C919597892B91F0ED
:1018F0009696ED91FC919797D183C0839796DC9350
:10190000CE939697DF91CF911F910F91FF90EF901B
:101910000C941404F801D7A3C6A3D5A3C4A3F2CF93
:1019200083FF0BC08091380190913901998388839E
:10193000D0933901C0933801E5CF9C968C939C9746
:101940001982188294968D919C919597892B89F094
:101950009696ED91FC919797D183C0839796DC93EF
:10196000CE939697C8010E94AC0AC8010E9428072E
:10197000C9CFF801D7A3C6A3D5A3C4A3F3CFCF92F1
:10198000DF92EF92FF920F931F93CF93DF938C011F
:1019900066E475E1FC0180810E94C707EC01F80153
:1019A000C480D580E680F7800E9412048E859F85D2
:1019B000A889B989892B8A2B8B2B19F086E10E9483
:1019C0001C07CC82DD82EE82FF82CA8ADB8AEC8A27
:1019D000FD8A8CA5877F8CA7DF91CF911F910F91F6
:1019E000FF90EF90DF90CF900C941404CF92DF9291
:1019F000FF920F931F93CF93DF938C0166E475E101
:101A0000FC0180810E94C707EC0164E375E1F801E5
:101A100084810E94C7078C016E01F8E2CF0ED11CB1
:101A2000FFB60E9412048AA59BA5892B19F089E1B3
:101A30000E941C0788E896E09BA78AA7F801848982
:101A4000958999A788A7D58AC48AFFBEDF91CF91CF
:101A50001F910F91FF90DF90CF900895EF92FF922A
:101A60000F931F93CF93DF93F62E883270F5E82FF4
:101A7000E695E695E695F0E0EE0FFF1FE755FF4F80
:101A8000C591D591209709F1877001E010E001C060
:101A9000000F8A95EAF7EFB60E9412049981902B05
:101AA000F11471F08A81802B8A839983EFBEBE0185
:101AB000802FDF91CF911F910F91FF90EF900895AC
:101AC0002A81802F80958223EFCF8CE10E941C0712
:101AD000FC01648180810C942E0D2F923F924F92D5
:101AE0005F926F927F928F929F92AF92BF92CF92AE
:101AF000DF92EF92FF920F931F93CF93DF9300D06B
:101B0000CDB7DEB7EF88F88C80919E0181119FC020
:101B100081E080939E016E0189E1C80ED11C209165
:101B20009B0150909A01251530F010929A01109265
:101B30009B01512C20E0852D90E087010E5F1F4F07
:101B4000F8013491AC01430F511D413651050CF1A0
:101B50003196E491821B91098E0F911D813691057A
:101B600008F073C010929A0160919B01561A452D9E
:101B700050E070E0665C7E4F8AE391E00E94A4181A
:101B800010929B0150929A018091C10080628093D3
:101B9000C100252C312CC101865C9E4F5C01F801EF
:101BA0009491092F963090F1D501129680E685190F
:101BB000981708F4892F8550990B4D01880E991EAE
:101BC000F70134962491319685919591382F3C01F7
:101BD000F701859195918038910558F0D5011396BC
:101BE000AC01440F452F441F550B51954068F5013A
:101BF00042838F778D93422E430E46103DC08A1646
:101C00009B0618F18D010A191B090D5F0115E9F0FA
:101C1000F101E65CFE4F008380910801F5018183AC
:101C20006DEF600FC5010E942306A00EB11CF501E7
:101C30003397919381938EE78083500E50929A014F
:101C40008091C10080628093C10010929E010F902C
:101C50000F90DF91CF911F910F91FF90EF90DF9048
:101C6000CF90BF90AF909F908F907F906F905F903C
:101C70004F903F902F900895CD01029688169906B7
:101C800020F3F3012491FFEF6F1A7F0A253009F446
:101C900079C040F08AEF820F823008F48DC086E070
:101CA0000E941C07C601223008F465C00296F601A6
:101CB0004081518160E070E0233021F4052E000C5A
:101CC000660B770B8A019B01005E1F4F2F4F3F4F22
:101CD000003811052105310508F446C00052104FA7
:101CE0002F4F3F4F0115F0E41F072105310588F103
:101CF0001051284F3F4F01151105E0E22E07310525
:101D0000E8F028503C4F011511052105304158F0ED
:101D10008A019B01ECE13695279517950795EA9581
:101D2000D1F700680D938A019B01F5E1369527955F
:101D300017950795FA95D1F700680D938A019B01D5
:101D4000EEE03695279517950795EA95D1F7006847
:101D50000D938A019B0157E03695279517950795B6
:101D60005A95D1F700680D934F77FD0141937F019C
:101D70006C01D70142CFF60141915191619171916E
:101D8000CF01A0CF7D01FFEFEF1AFF0AF60181918D
:101D900091916F01FC012191CF01211519F08E1451
:101DA0009F0430F4C7018A1B9B0B81508C93E1CFB9
:101DB000F70121937F01EECFF601E080F180A401CD
:101DC0004A1B5B0B052E000C660B770B0F2C001CBF
:101DD0000008E416F5060606070608F036CFFD01F2
:101DE000E1928F01C60104969A838983F60162818C
:101DF0007381A701C801263039F40E948518E00ECE
:101E0000F11EC980DA80B5CF0E949B18F8CF80916F
:101E10003601909137019F938F9321E030912701F4
:101E2000311101C020E01F922F9320912F012F9399
:101E300020912E012F9320912D012F9320912C0181
:101E40002F9321E0892B09F420E01F922F9386E93C
:101E500097E09F938F930E946D0D8DB79EB70C9660
:101E60000FB6F8949EBF0FBE8DBF08950E9406075F
:101E70009F938F937F936F938DE997E09F938F93B9
:101E80000E946D0D0F900F900F900F900F900F907C
:101E900008950F931F930E940607362F272F462F72
:101EA000572FBC017F938F932F933F9381E090E056
:101EB000A0E0B0E0009167021091680220916902F1
:101EC00030916A02401751076207730718F080E0EB
:101ED00090E0DC01409163025091640260916502E0
:101EE00070916602840F951FA61FB71FBF93AF9313
:101EF0009F938F9384EA97E09F938F930E946D0D39
:101F00008DB79EB70A960FB6F8949EBF0FBE8DBFD1
:101F10001F910F910895CF92DF92EF92FF92CF938E
:101F2000DF93EC0188819981AA81BB81E6E4F6E028
:101F3000459155916591759184179507A607B70747
:101F400078F52C816C017D01C20ED11CE11CF11CC5
:101F50004C155D056E057F0508F1422F9C012D543F
:101F60003F4F3F932F931F924F93BF93AF939F93F6
:101F70008F9382EB97E09F938F930E946D0D8DB7A7
:101F80009EB70A960FB6F8949EBF0FBE8DBFDF9125
:101F9000CF91FF90EF90DF90CF900895481BDECF58
:101FA00040E0DCCF0F931F93CF93DF93FC011081B0
:101FB000C481D5810FB70E9412041130E1F01230B4
:101FC000E9F0888190E0A0E0B0E00FBFBF93AF934D
:101FD0009F938F9388E897E09F938F930E946D0D56
:101FE0000F900F900F900F900F900F90DF91CF9167
:101FF0001F910F91089588819981E5CF88819981FA
:10200000AA81BB81E2CFFC0185818F9384818F936C
:1020100080811F928F938FE897E09F938F930E9408
:102020006D0D0F900F900F900F900F900F900895DF
:10203000CF92DF92EF92FF92CF93FC01C08166E4D2
:1020400075E18C2F0E94C7077C010E941204F701E2
:1020500080A191A1A2A1B3A146855785608971890C
:1020600024A524FF2EC06C017D01C41AD50AE60AFE
:10207000F70A0E941404D701C601F7FE07C0B09505
:10208000A095909581959F4FAF4FBF4FB054BF9390
:10209000AF939F938F931F92CF9381E897E09F9385
:1020A0008F930E946D0D8DB79EB708960FB6F8946A
:1020B0009EBF0FBE8DBFCF91FF90EF90DF90CF906E
:1020C00008957695679557954795CDCFCF92DF9236
:1020D000EF92FF920F931F93CF93DF93FC01008148
:1020E0006AEE75E1802F0E94C707EC010E9412047E
:1020F000198DFB88EC88DD88CE880E941404E88561
:10210000F98580819A85892391E0811101C090E051
:102110001F929F93CF92DF92EF92FF9216951170CC
:102120001F921F931F920F938AE797E09F938F93BD
:102130000E946D0D8DB79EB70C960FB6F8949EBF9A
:102140000FBE8DBFDF91CF911F910F91FF90EF9048
:10215000DF90CF9008950F931F933F932F931F937A
:102160000F931F924F9361701F926F931F928F93E3
:1021700083E797E09F938F930E946D0D8DB79EB775
:102180000C960FB6F8949EBF0FBE8DBF1F910F9196
:102190000895CF93DF93CDB7DEB72E970FB6F8949F
:1021A000DEBF0FBECDBF8EE892E090939D0180937D
:1021B0009C010FB70E9412041092800011E010934E
:1021C0008100B4E8EB2EF12CD70111961C921E92DF
:1021D0000E943F06F70180819181C29690938B0007
:1021E00080938A0084E086BB80E091E00E9428070B
:1021F00016BB82E080936F000FBF98E12DE00FB611
:10220000F894A895909360000FBE2093600090E42E
:10221000909360008093C00087E090E09093C500A9
:102220008093C40086E08093C20088EB8093C10055
:1022300087EC97E09F938F930E946D0D0F900F9006
:102240000E94120487E792E00E9444188C01892BB7
:1022500009F030C10E9414040E9406074B015C0182
:10226000A1E22A2EA1E03A2E2B863C86D1011496BB
:102270008C918115E1F00E940607861A970AA80A38
:10228000B90A0E9412048FEFF10185838483789448
:102290000000F894D10114968C918111F8CF0E941E
:1022A00014040E940607860E971EA81EB91E81E020
:1022B000F1018483AFE9B1E08C91811569F01C9242
:1022C0008FEF898364E375E1CE0101960E94C0041B
:1022D0007C01892B09F08FC1A8958091A0018115FF
:1022E00031F080E4E0E6F0E080831092A001A2E605
:1022F000B2E07C9071109DC10E9406072B013C0149
:10230000C301B201681979098A099B098090730297
:1023100090907402A0907502B090760295018401AD
:102320000F5F1F4F2F4F3F4F0D831E832F83388723
:102330000093730210937402209375023093760217
:10234000C0906F02D0907002E0907102F090720223
:10235000C60ED71EE81EF91EC0926F02D092700200
:10236000E0927102F092720280906B0290906C0287
:10237000A0906D02B0906E026115710511E08107A9
:10238000910508F0DAC29B01AC010E941A18DC0129
:10239000CB0181509F4FAF4FBF4F892F9A2FAB2F4B
:1023A000BB27880D991DAA1DBB1D88159905AA0577
:1023B000BB0508F4DBC280936B0290936C02A09380
:1023C0006D02B0936E024091670250916802609175
:1023D000690270916A0293018201041B150B260B9E
:1023E000370BB901A8014115544B644C744008F4F3
:1023F0005EC0BF93AF939F938F93FF92EF92DF9254
:10240000CF9228852F933F813F934E814F935D81DB
:102410005F938BEA97E09F938F930E946D0DEDB7CA
:10242000FEB73E960FB6F894FEBF0FBEEDBF80918B
:10243000670290916802A0916902B0916A02481601
:1024400059066A067B0698F48091630290916402B3
:10245000A0916502B09166020196A11DB11D809305
:10246000630290936402A0936502B0936602409267
:102470006702509268026092690270926A0210923A
:102480006B0210926C0210926D0210926E0210920A
:102490006F021092700210927102109272021092EA
:1024A0007302109274021092750210927602530118
:1024B0004201DCCE0E9412040E940607F62EE72E8F
:1024C000D82EC92EE1E2F1E08681811101C0078397
:1024D00081E291E022E0DC0116962C93169729E028
:1024E00031E02D933C93E9E1F1E04481558166812F
:1024F0007781D90114964D935D936D937C931797D3
:10250000DC011396FC93EE931297D901ED93FC93A3
:1025100081E191E0918380830E943F0610929E01A9
:102520000E947C048FEF8C83F1E1BF2E6EE975E190
:10253000CE0104960E94C0048C01892BE1F58FEF37
:102540008B8366E475E1CE0103960E94C004FC0112
:10255000892B09F044C08FEF8A8364E375E1CE01D3
:1025600002960E94C0049C01892B09F040C080E0C3
:1025700091E00E94280701E211E081E0D80116965F
:102580008C930E941404F80187811F928F93CF923D
:10259000DF92EF92FF9289EB97E09F938F930E94D7
:1025A0006D0D0DB71EB7085F1F4F0FB6F8941EBF15
:1025B0000FBE0DBF4FCEF80143A1407164897589EC
:1025C00086890E946C06D80193969C91892F807110
:1025D00094FD8B2DF80183A310A2178EA7CF15A20F
:1025E00014A260E0CF0188960E948806AACFC90194
:1025F0000E940506B2CFF701868982FF63CE0E9452
:1026000006078B016C010E941204D70157966C904B
:10261000579756967C905697872D8B7F56968C931E
:102620000E9414049601462D672D89810E94AB10EB
:1026300049CE1091A10110FD14C025E0721608F4D6
:102640005BCEE2EAF1E0D0808BEF8D0D8C3308F0A9
:1026500087C06180862D807F803131F111601093B9
:10266000A101472D50E06EE770E082EA91E00E9400
:102670008E189C01892B41F01E7F1093A101225AD4
:10268000314077247394720E11FD0CC0812F82604B
:102690008093A1018CE697E09F938F930E946D0D2C
:1026A0000F900F900FEF35C07D1408F425CE8D2DBF
:1026B00090E0FC01EF55FE4F20812E3779F6AC01FA
:1026C00041565E4F7A0180569E4FDC010C91FA0113
:1026D0008081582E402E6DEF6D0D82EA91E00E94B0
:1026E00023064816590609F0B9CF1D7F1093A101A2
:1026F0008091080168123BC081E0860D8F70806177
:102700008093080104EA11E00E151F0590F17D2C5D
:1027100001E010E0A2E6B2E0EC90FE2CF718E7141E
:10272000A1F0812F90E0EF2DE11BFF0BAF01212FD6
:10273000270D3327331FB9016E557E4F8E559E4F9F
:102740000E94A418109225011F2DDFB60E941204CA
:10275000A2E6B2E08C91E81609F4E0C0DFBEDACF61
:10276000FEE7DF127BCF0FEF77247394D2CF7D2C5F
:1027700091CF2DB73EB73A872987D8018C91282F62
:1027800030E087FD0FC00F5F1F4F2115310539F075
:10279000EAE6F7E0859195912817390788F085E0FA
:1027A0000E941C07B0E88B9FC001112480789F73A2
:1027B000F8012181AC01422B9A010E5F1F4FE5CF3A
:1027C00059E0529FC001539F900D1124FC01E45B1E
:1027D000F94FE491ADB7BEB7F4E0EF9FA019B1098E
:1027E00011240FB6F894BEBF0FBEADBF6DB77EB754
:1027F0006F5F7F4FFC01E25BF94F4491FC01E15BAD
:10280000F94F259135912D873E87DB01420FFD85DC
:102810004F130FC0AB85BC85F1012681211162C029
:10282000FC01EF5AF94F25913591CB01F90109953A
:102830006DC0E016F10650F0ED85FE8524913196CD
:10284000FE87ED87253020F0273089F187E0A8CF7B
:102850009D012C5F3F4FF80151918F01452EE89467
:1028600047F8512C612C712CF52FF076E0E6FE1321
:1028700006C0F0EE4F2A55245A94652C762C57FD4D
:1028800007C04D925D926D927C921397D901BFCF94
:10289000F80151918F01E7E0440C551C661C771C30
:1028A000EA95D1F7C52EE894C7F84C28E8CFF8018F
:1028B00041908F01040D111DE016F10638F2512CE4
:1028C000612C712C4D925D926D927C9213972F0129
:1028D000612C712C14964D925D926D927C9217979B
:1028E000189695CFFC01E35BF94FE491E0FD98CF9A
:1028F00017968C911F928F9380EC97E09F938F9304
:102900000E946D0D0F900F900F900F9029853A85C2
:102910000FB6F8943EBF0FBE2DBFF6CEF092620206
:10292000DFBE013009F0E8CC8CE697E09F938F93EF
:102930000E946D0D0F900F90DFCC61157105B0E115
:102940008B07910578F49B01AC0121503F4F4F4F0D
:102950005F4F232F342F452F55270E941A18DC0173
:10296000CB011FCD8FEF9FEFDC0125CD8FEF9FEFC8
:10297000AFEFBFEF20CDFF920F931F93CF93DF9365
:102980008C01FC01F08064E375E18F2D0E94C70784
:10299000EC010E941204F8016481CE010E944505F9
:1029A000CE010E943604CE0108960E9436041E8A8B
:1029B000CF890E94140400E010E098014C2F60E0E1
:1029C0008F2D0E94AB10DF91CF911F910F91FF903F
:1029D0000895CF93DF93AC01C0919C01D0919D01EC
:1029E0009E01280F391F8DB79EB781509F4F8827B2
:1029F0009A958217930718F481E10E941C0730937F
:102A00009D0120939C0160E070E0CE010E94B61809
:102A1000CE01DF91CF910895CF93DF93282FCA0184
:102A2000309132012317A0F444E0249F9001112437
:102A3000C0913001D0913101C20FD31F288139815B
:102A4000232B31F42091360130913701232B19F0DB
:102A50008BE00E941C07688379830E94E9148A83B3
:102A60009B83DF91CF91089549E150E064E375E1E4
:102A7000FC0180810E940C15FC018AEE95E0938395
:102A8000828383EE95E0938782870895FF920F9368
:102A90001F93CF93DF938C014DE250E066E475E124
:102AA000FC0180810E940C15EC01F801F48484E0A3
:102AB0001F141CF0F11411F080E18CA76CA5647058
:102AC000F80184810E942E0D6A8F7B8F8C8F60E0CD
:102AD000F80180850E942E0D6D8F7E8F8F8F80E094
:102AE00090E0A0E0B0EC88A399A3AAA3BBA3F8014F
:102AF00080899189A289B3898E8B9F8BA88FB98F8A
:102B00006BE070E0CE0184960E94B107F7FC11C023
:102B10008E899F89A88DB98D8997A105B10548F443
:102B20008CA580638CA7DF91CF911F910F91FF90AF
:102B3000089580EA9BE09B838A83F5CFFF920F93F1
:102B40001F93CF93DF93EC0161E088859985AA8577
:102B5000BB85892B8A2B8B2B09F460E08C810E942A
:102B60002E0DF62E072F182F44E250E06EE975E186
:102B700088810E940C15FC01F48A058B168B81E07C
:102B80004C855D856E857F85452B462B472B09F44B
:102B900080E08295807F91E0488559856A857B85B4
:102BA000452B462B472B09F490E0892B83A388897A
:102BB0009989AA89BB89878B908FA18FB28F6AE090
:102BC00070E0CF014F96DF91CF911F910F91FF9051
:102BD0000C94B107CF92DF92EF92FF920F931F9365
:102BE000CF93DF938C014DE150E06AEE75E1FC017B
:102BF00080810E940C15EC01F801D0848481883218
:102C0000B0F5D7FC34C0E82FE695E695E695F0E000
:102C1000EE0FFF1FE755FF4F0591159101151105A7
:102C200031F1877021E030E0790101C0EE0C8A9526
:102C3000EAF7CFB60E9412042E2D2095F80182816A
:102C4000D11499F08E29F801918192239183828386
:102C5000CFBE19870887EA86DF91CF911F910F9128
:102C6000FF90EF90DF90CF9008958223ECCF8BE11F
:102C70000E941C07CF93FC0180913001909131019B
:102C8000892B19F08AE00E941C07C08124E0C29FB2
:102C9000C00111240E94E914909331018093300106
:102CA000C0933201CF910895EF92FF920F931F933B
:102CB000CF93DF9300D000D0CDB7DEB77C01009179
:102CC0003601109137018DE001151105F1F462E034
:102CD00070E0CE0101960E94B1076091350170E06D
:102CE000E0919C01F0919D012DB73EB721503F4FDF
:102CF00022273A95AF01CA01460F571F24173507FF
:102D000030F40115110551F480E10E941C070F5F9A
:102D10001F4F011584E0180771F7CA018E1B9F0B26
:102D20000E94E91410933701009336019093340107
:102D3000809333010E947C04F70180819181A281FC
:102D4000B38180932C0190932D01A0932E01B09319
:102D50002F010F900F900F900F90DF91CF911F9147
:102D60000F91FF90EF9008950E9414040E94C910E3
:102D70001F920F920FB60F921124CF92DF92EF9213
:102D8000FF920F931F932F933F934F935F936F93F4
:102D90007F938F939F93AF93BF93CF93DF93EF93E3
:102DA000FF93C0912101D0912201EA81FB813097EC
:102DB00009F060C0EA8DFB8D2C8D20838E859F8568
:102DC000019709F44FC09F878E87488559856A858A
:102DD0007B858C819D81AE81BF81840F951FA61F4D
:102DE000B71F8C839D83AE83BF8320838CA586FF12
:102DF0000EC08C859D85092E000CAA0BBB0B840F81
:102E0000951FA61FB71F88879987AA87BB8781E070
:102E10004C815D816E817F81E881F981048115811A
:102E200026813781811129C0F0932201E09321018D
:102E30008091230190912401C817D90721F4F093C0
:102E40002401E09323018091840090918500801BF0
:102E5000910B97FD49C00E941404B2994FC00E9483
:102E600012049FCFCE010E94AC0AEA8DFB8D9C8D8F
:102E70009083CECFCE010995CBCF972F872F4017C8
:102E800051076207830B87FF02C08A01DCCFF093F2
:102E90002201E0932101A0912301B0912401149615
:102EA000CD90DD90ED90FC901797872F4C155D0528
:102EB0006E058F0987FFFD01DF010190F081E02D94
:102EC000C480D580E680F780892F4C155D056E059E
:102ED0008F0987FFF1CFF983E883CD93DC93D093FB
:102EE0002401C0932301AFCF863A9F4F4CF10E943B
:102EF0001404B29903C00E941204A5CF0E941204C8
:102F000080918400909185009801281B390B20380E
:102F1000314C3CF420912701211103C08AE10E9429
:102F20001C079C012854344F4091260147FD25C0C1
:102F300030938B0020938A0024E026BB8C011395EC
:102F40001093890000938800FF91EF91DF91CF915A
:102F5000BF91AF919F918F917F916F915F914F91B1
:102F60003F912F911F910F91FF90EF90DF90CF90A5
:102F70000F900FBE0F901F90189540912501409320
:102F8000260130938B0020938A0024E026BB909387
:102F900089008093880057CF1F920F920FB60F922F
:102FA000112481E08093A0018DE10E941C071F92F3
:102FB0001FB61F9211248F939F93EF93FF938091DD
:102FC000C6008E3711F410922501E0916202E03CB8
:102FD00040F491E09E0F90936202F0E0EE55FE4FB8
:102FE0008083FF91EF919F918F911F901FBE1F9043
:102FF00018958F938FB78F93EF93FF93E0919B0179
:1030000080919A01E81758F08091C1008F7D8093DC
:10301000C100FF91EF918F918FBF8F91189581E043
:103020008E0F80939B01F0E0E65CFE4F80818093E1
:10303000C600EFCFDB018F939F930E942A18BF91A8
:10304000AF91A29F800D911DA39F900DB29F900DF7
:10305000112408950E943518A59F900DB49F900DDE
:10306000A49F800D911D11240895A29FB001B39FCC
:10307000C001A39F700D811D1124911DB29F700D81
:10308000811D1124911D0895DC012D923D924D92D8
:103090005D926D927D928D929D92AD92BD92CD92F8
:1030A000DD92ED92FD920D931D93CD93DD93FF91F3
:1030B000EF918DB78D938EB78D938FB78D93ED93E1
:1030C000FD93882799270994DC01CB018130910574
:1030D000811D2D903D904D905D906D907D908D90D7
:1030E0009D90AD90BD90CD90DD90ED90FD900D91B7
:1030F0001D91CD91DD91ED91FD910D90F894FEBF64
:103100000FBEEDBFED91FD910994FB01DC0102C002
:1031100005900D9241505040D8F70895FC01415060
:10312000504030F001900616D1F73197CF01089545
:10313000882799270895FB01DC0102C001900D92B8
:1031400041505040D8F708956817790768F4FB019B
:10315000DC01E40FF51FA40FB51F02C002900E9210
:1031600041505040D8F708950C949B18DC0101C0E1
:0E3170006D9341505040E0F70895F894FFCF62
:10317E0000004B0600800000100000340400000028
:10318E000000002507000000801101160400000059
:0A319E0000190119010000000000F3
:00000001FF
